:020000040800F2
:1000000000000820692600089509000897090008E3
:10001000990900089B0900089D09000800000000DC
:100020000000000000000000000000009F09000820
:10003000A109000800000000A3090008A5090008A4
:10004000B9260008B9260008B9260008B926000814
:10005000B9260008B9260008B9260008B926000804
:10006000B9260008B9260008B9260008B9260008F4
:10007000B9260008B9260008B9260008B9260008E4
:10008000B9260008B9260008B9260008B9260008D4
:10009000B9260008B9260008B9260008B9260008C4
:1000A000B9260008B9260008B9260008B9260008B4
:1000B000B9260008B9260008B9260008B9260008A4
:1000C000B9260008B9260008B9260008B926000894
:1000D000B9260008B9260008B9260008AD090008AD
:1000E000B9260008B9260008B9260008B926000874
:1000F000B9260008B9260008B9260008B926000864
:10010000B9260008B9260008B9260008B926000853
:10011000B9260008B9260008B9260008B926000843
:10012000B9260008B9260008B9260008B926000833
:10013000B9260008B9260008B9260008B926000823
:10014000B9260008B9260008B9260008B926000813
:10015000B9260008B9260008B9260008B926000803
:10016000B9260008B9260008B9260008B9260008F3
:10017000B9260008B9260008B926000800000000CA
:10018000B9260008B9260008B9260008B9260008D3
:10019000B9260008B9260008B9260008B9260008C3
:1001A000B9260008B9260008B9260008B9260008B3
:1001B000B9260008B9260008B9260008B9260008A3
:1001C000B9260008B926000800000000B92600087A
:1001D000B9260008B9260008B9260008B926000883
:1001E000B9260008B9260008B9260008B926000873
:0801F000B9260008B926000839
:1002000010B5054C237833B9044B13B10448AFF350
:1002100000800123237010BD70000020000000004A
:100220002437000808B5034B1BB103490348AFF35B
:10023000008008BD00000000740000202437000882
:1002400001F0FF01102A2BDB10F0070F08D010F887
:10025000013B013A8B422DD010F0070F42B3F6D18B
:10026000F0B441EA012141EA014122F007047FF0A4
:1002700000070023F0E80256083C85EA010586EAFB
:10028000010685FA47F5A3FA87F586FA47F6A5FA37
:1002900087F68EB9EED1F0BC01F0FF0102F0070243
:1002A00032B110F8013B013A83EA010313B1F8D1EE
:1002B0000020704701387047002D06BF35460338CF
:1002C000073815F0010F07D1013015F4807F02BF08
:1002D000013015F4C03F0130F0BC0138704700BF59
:1002E00053B94AB9002908BF00281CBF4FF0FF319D
:1002F0004FF0FF3000F074B9ADF1080C6DE904CE99
:1003000000F006F8DDF804E0DDE9022304B07047F0
:100310002DE9F047089D04468E46002B4DD18A42B8
:10032000944669D9B2FA82F252B101FA02F3C2F1EB
:10033000200120FA01F10CFA02FC41EA030E94407C
:100340004FEA1C48210CBEFBF8F61FFA8CF708FB9D
:1003500016E341EA034306FB07F199420AD91CEB75
:10036000030306F1FF3080F01F81994240F21C81A7
:10037000023E63445B1AA4B2B3FBF8F008FB1033EF
:1003800044EA034400FB07F7A7420AD91CEB040424
:1003900000F1FF3380F00A81A74240F207816444F4
:1003A000023840EA0640E41B00261DB1D440002379
:1003B000C5E900433146BDE8F0878B4209D9002DDD
:1003C00000F0EF800026C5E9000130463146BDE867
:1003D000F087B3FA83F6002E4AD18B4202D38242D1
:1003E00000F2F980841A61EB030301209E46002D80
:1003F000E0D0C5E9004EDDE702B9FFDEB2FA82F2D5
:10040000002A40F09280A1EB0C014FEA1C471FFA32
:100410008CFE0126200CB1FBF7F307FB131140EA19
:1004200001410EFB03F0884208D91CEB010103F1E6
:10043000FF3802D2884200F2CB804346091AA4B2A8
:10044000B1FBF7F007FB101144EA01440EFB00FE7C
:10045000A64508D91CEB040400F1FF3102D2A645E1
:1004600000F2BB800846A4EB0E0440EA03409CE780
:10047000C6F12007B34022FA07FC4CEA030C20FA2D
:1004800007F401FA06F31C43F9404FEA1C4900FA4D
:1004900006F3B1FBF9F8200C1FFA8CFE09FB1811CA
:1004A00040EA014108FB0EF0884202FA06F20BD93D
:1004B0001CEB010108F1FF3A80F08880884240F28D
:1004C0008580A8F102086144091AA4B2B1FBF9F0D1
:1004D00009FB101144EA014100FB0EFE8E4508D9CC
:1004E0001CEB010100F1FF346CD28E456AD9023851
:1004F000614440EA0840A0FB0294A1EB0E01A14236
:10050000C846A64656D353D05DB1B3EB080261EBA3
:100510000E0101FA07F722FA06F3F1401F43C5E97D
:10052000007100263146BDE8F087C2F12003D840B3
:100530000CFA02FC21FA03F3914001434FEA1C47F5
:100540001FFA8CFEB3FBF7F007FB10360B0C43EAE7
:10055000064300FB0EF69E4204FA02F408D91CEB97
:10056000030300F1FF382FD29E422DD90238634495
:100570009B1B89B2B3FBF7F607FB163341EA034135
:1005800006FB0EF38B4208D91CEB010106F1FF3884
:1005900016D28B4214D9023E6144C91A46EA00467B
:1005A00038E72E46284605E70646E3E61846F8E60D
:1005B0004B45A9D2B9EB020864EB0C0E0138A3E756
:1005C0004646EAE7204694E74046D1E7D0467BE737
:1005D000023B614432E7304609E76444023842E7AF
:1005E000704700BF72B6FEE710B5B8B034220021E4
:1005F0002BA802F087F800242694279428942994A5
:100600002A949022214602A802F07CF81F4B1A6C13
:1006100042F080521A641B6C03F080530093009BDD
:100620001B4A136823F4404343F480431360136868
:1006300003F440430193019B02232B9301232E9348
:1006400010232F9331942BA800F0E8FFB8B90F23A3
:1006500026930021279128914FF4805329932A91C2
:1006600026A801F061FA60B94FF480730293002369
:10067000159302A801F034FB28B938B010BDFFF77C
:10068000B1FFFFF7AFFFFFF7ADFF00BF003802403B
:100690000070004010B501F0A7FFFFF7A5FF00F0C4
:1006A0003DF800F0A7F800F0FFF8144802F0B8F8A1
:1006B000134802F0B5F815E00024124B1C601249F3
:1006C000124802F027F8124802F0AAF82146114811
:1006D00002F020F84FF480410F4801F0F9FE642049
:1006E00001F0A0FF80210C4801F0F2FE00F02CF98F
:1006F000044B1B68002BDFD1F1E700BF3C3700083B
:100700004C3700089C0200208C0000206C37000849
:1007100084370008AC37000800040240F0B58BB005
:100720000024059406940794089409942C4B1A6BA2
:1007300042F004021A631A6B02F004020192019A59
:100740001A6B42F002021A631A6B02F00202029262
:10075000029A1A6B42F008021A631A6B02F008023E
:100760000392039A1A6B42F040021A631B6B03F068
:1007700040030493049B1B4F224644F281013846F8
:1007800001F0A0FE184D22464021284601F09AFEB5
:100790004FF400530593154B0693079405A914488D
:1007A00001F09EFD44F2810305930126069607940D
:1007B000089405A9384601F093FD40230593069659
:1007C0000794089405A9284601F08AFD8023059323
:1007D0000694079405A9284601F082FD0BB0F0BDF0
:1007E00000380240000402400018024000001110CE
:1007F0000008024008B50B480B4B03604FF4E1338F
:10080000436000238360C36003610C224261836103
:10081000C3610362436200F056FE00B908BDFFF7F2
:10082000E1FEFBE7140200200048004000B589B05B
:100830000023039304930593069307930268184BD0
:100840009A4202D009B05DF804FB03F5F8331A6C44
:1008500042F480221A641A6C02F480220192019AF6
:100860001A6B42F008021A631B6B03F00803029331
:10087000029B4FF4407303930223049303230693D4
:100880000723079303A9074801F02AFD0022114618
:10089000272000F0BDF8272000F0F0F8D2E700BFD5
:1008A00000480040000C024008B5044B1B780122B0
:1008B00003491944034800F08DFE08BD8C01002057
:1008C0000C0100201402002008B502680A4B9A426D
:1008D00000D008BD094B1A780132D2B21A701A78CA
:1008E00002F07F021A701B7801220549194405485D
:1008F00000F070FEEDE700BF004800408C010020D2
:100900000C0100201402002008B502680A4B9A422C
:1009100000D008BD094B1A780132D2B21A701A7889
:1009200002F07F021A701B7801220549194405481C
:1009300000F026F9EDE700BF00480040100200205B
:10094000900100201402002000210DE00C4AD05C30
:100950000C4A5054013101330B4A136023F08003D9
:1009600013600A4B01221A60094B1A78D2B2064B67
:100970001B689A42EAD1034B00225A54704700BFC9
:100980000C0100208C000020980200209C02002016
:100990008C010020FEE7FEE7FEE7FEE7FEE770477A
:1009A0007047704708B501F02BFE08BD08B5024836
:1009B00000F0BEF908BD00BF1402002082B00A4B4F
:1009C0001A6C42F080521A641A6C02F08052009243
:1009D000009A5A6C42F480425A645B6C03F4804380
:1009E0000193019B02B07047003802400649CB6872
:1009F00023F4E0631B041B0C000200F4E0600343DB
:100A0000024A1A43CA60704700ED00E00000FA0590
:100A100000B5174BDB68C3F30223C3F1070CBCF12D
:100A2000040F28BF4FF0040C03F1040EBEF1060FB3
:100A300014D9033B4FF0FF3E0EFA0CFC21EA0C01E7
:100A400099400EFA03F322EA03031943002807DB57
:100A50000901C9B2074B19545DF804FB0023E9E70B
:100A600000F00F000901C9B2034B1954F4E700BFAD
:100A700000ED00E000E400E014ED00E0002807DBFA
:100A800000F01F02400901239340024A42F820303F
:100A9000704700BF00E100E00138B0F1807F0BD269
:100AA0004FF0E0235861054AF02182F8231000201E
:100AB000986107221A6170470120704700ED00E03D
:100AC0000268136823F4907313600268936823F03C
:100AD00001039360036E012B05D02023C36700231D
:100AE0000366436670470268136823F010031360BF
:100AF000F3E7836F212B00D07047B0F852309BB2E0
:100B000053B90268136823F0800313600268136806
:100B100043F0400313607047C36C1A7803689A620D
:100B2000C36C0133C364B0F852309BB2013B9BB23B
:100B3000A0F85230E0E7836F212B00D07047B0F867
:100B400052309BB253B90268136823F080031360DC
:100B50000268136843F0400313607047C36C1B883E
:100B60000268C3F308039362C36C0233C364B0F832
:100B700052309BB2013B9BB2A0F85230DEE700003E
:100B8000836F202B2BD1002A18BF002929D090F881
:100B90007430012B27D0012380F87430C164A0F891
:100BA0005020A0F8522000238366C0F88030212313
:100BB00083678368B3F5805F0BD00C4B836600239B
:100BC00080F8743001680A6842F080020A601846B2
:100BD00070470369002BF0D1054B8366EFE70220D5
:100BE0007047012070470220704700BFF30A0008D9
:100BF000370B000808B501680A6822F040020A6055
:100C00002022826700228266FFF77EFE08BD7047C1
:100C100008B5806B0023A0F85A30A0F85230FFF7D7
:100C2000F6FF08BD704710B50446B0F85C30C26FDF
:100C3000222A05D00268936943F00803936110BD2E
:100C40000268516ADBB2426D0B401370436D013391
:100C50004365B0F85A309BB2013B9BB2A0F85A30C2
:100C6000B0F85A309BB2002BE9D10268136823F424
:100C7000907313600268936823F00103936020234C
:100C8000C36700234366036E012B04D0FFF71CFEED
:100C900000232366D3E70268136823F01003136070
:100CA000B0F85810FFF7BEFFF2E710B50446B0F8F1
:100CB0005C20C36F222B05D00268936943F00803C0
:100CC000936110BD03685B6A416D13400B80436DF7
:100CD00002334365B0F85A309BB2013B9BB2A0F897
:100CE0005A30B0F85A309BB2002BEAD10268136830
:100CF00023F4907313600268936823F001039360F8
:100D00002023C36700234366036E012B04D0FFF743
:100D1000DBFD00232366D4E70268136823F0100389
:100D20001360B0F85810FFF77DFFF2E7704700003E
:100D300070B504460168CB6908688D6840F60F02FB
:100D40001A4005D113F0200F02D010F0200F20D14F
:100D50002AB115F0010222D1944E30421FD1226EE9
:100D6000012A00F0A28013F4801F03D015F4800F35
:100D700040F0098113F0800F03D010F0800F40F095
:100D8000098113F0400F03D010F0400F40F00981AB
:100D900070BD636E002BFBD020469847F8E713F038
:100DA000010F09D010F4807F06D001250D62D4F820
:100DB00080102943C4F8801013F0020F09D042B10B
:100DC000216802250D62D4F8801041F00401C4F8B6
:100DD000801013F0040F09D042B1216804250D6280
:100DE000D4F8801041F00201C4F8801013F0080F0D
:100DF0000BD010F0200F00D13AB122680821116207
:100E0000D4F880200A43C4F8802013F4006F0CD07B
:100E100010F0806F09D022684FF400611162D4F89D
:100E2000802042F02002C4F88020D4F88020002ADC
:100E3000AED013F0200F06D010F0200F03D0636E59
:100E40000BB120469847D4F8802023689B6813F0A4
:100E5000400F02D112F0280F20D02046FFF730FEBD
:100E600023689A6812F0400F14D09A6822F040026A
:100E70009A60236F53B14E4A1A65206F01F07BFBD5
:100E8000002885D0206F036D984781E72046FFF743
:100E9000BEFE7DE72046FFF7BAFE79E72046FFF762
:100EA000B6FE0023C4F8803072E713F0100F3FF451
:100EB0005AAF10F0100F3FF456AF10230B622268A8
:100EC000936813F0400F37D0216F0B685B689BB2BB
:100ED000002B3FF45DAFB4F8580098427FF658AF4E
:100EE000A4F85A30CB69B3F5807F0AD1B4F8581012
:100EF000B4F85A309BB2C91A89B22046FFF792FE65
:100F000046E7136823F4807313602268936823F024
:100F1000010393602268936823F0400393602023C9
:100F2000E367002323662268136823F0100313602D
:100F3000206F01F0D6FAD9E7B4F85810B4F85A3057
:100F40009BB2C91A89B2B4F85A309BB2002B3FF455
:100F50001FAF00293FF41CAF136823F49073136094
:100F60002268936823F0010393602023E367002342
:100F7000236663662268136823F01003136020461B
:100F8000FFF750FE04E74FF480130B622046FFF793
:100F9000CDFEFDE6A36E002B3FF4FAAE2046984747
:100FA000F6E62046FFF726FEF2E600BF2001000429
:100FB000110C000810B504468368026913434269A6
:100FC0001343C269134301680868934A02401343FC
:100FD0000B602268536823F44053E1680B4353606D
:100FE000A269236A1A4321688B6823F43063134390
:100FF0008B602368894A934219D0894A934229D049
:10100000884A93423ED0884A934262D0874A9342AC
:1010100071D0874A934200F08380864A934200F061
:101020009480854A934200F0A58010233AE0834BD8
:10103000D3F8903003F00303032B09D8DFE803F063
:101040000204AE0601232DE004232BE0082329E04F
:10105000102327E0794BD3F8903003F00C030C2BCE
:101060000ED8DFE803F0070D0D0D090D0D0D9D0DD8
:101070000D0D0B00002315E0042313E0082311E0FD
:1010800010230FE06D4BD3F8903003F03003202B8A
:1010900000F0888019D8002B00F08680102B40F0DB
:1010A00085800423E069B0F5004F00F0AB80082B89
:1010B00000F20C81DFE813F0E800FB00E6000A0113
:1010C000FE000A010A010A010101302B70D1082338
:1010D000E8E75A4BD3F8903003F0C003802B69D077
:1010E00005D8002B68D0402B68D10423DAE7C02B49
:1010F00066D10823D6E7514BD3F8903003F4407300
:10110000B3F5007F5ED006D8002B5DD0B3F5807FAD
:101110005CD10423C6E7B3F5407F59D10823C1E76A
:10112000464BD3F8903003F44063B3F5006F51D0D1
:1011300006D8002B50D0B3F5806F4FD10423B1E710
:10114000B3F5406F4CD10823ACE73C4BD3F890305B
:1011500003F44053B3F5005F44D006D8002B43D0CE
:10116000B3F5805F42D104239CE7B3F5405F3FD1E4
:10117000082397E7314BD3F8903003F44043B3F59D
:10118000004F37D005D8BBB3B3F5804F36D1042319
:1011900088E7B3F5404F33D1082383E7022381E783
:1011A00002237FE702237DE700237BE7102379E713
:1011B000102377E7022375E7002373E7102371E715
:1011C00010236FE702236DE700236BE7102369E725
:1011D000102367E7022365E7012363E7102361E734
:1011E00010235FE702235DE700235BE7102359E745
:1011F000102357E7022355E7002353E7102351E755
:1012000010234FE7082B5BD8DFE803F01A343A5A73
:10121000375A5A5A1E0000BFF369FFEF0010014011
:101220000044004000480040004C00400050004096
:101230000014014000780040007C0040003802406B
:1012400000F02EFD00283DD06268530803EB4000FB
:10125000B0FBF2F080B2A0F110024FF6EF739A42A9
:1012600032D820F00F03C0F3420018432368D8603F
:10127000002030E000F024FDE4E700F0F1FBE1E7BE
:101280001748E1E7164802E000F00AFD00B3636882
:1012900000EB5300B0FBF3F080B2A0F110024FF668
:1012A000EF739A4216D82368D860002013E000F04C
:1012B00007FDEBE700F0D4FBE8E74FF40040E6E77A
:1012C000012008E0002006E0012004E0012002E007
:1012D000002000E0012000236366A36610BD00BF6C
:1012E0000024F400436A13F0010F06D0026853682B
:1012F00023F40033816A0B435360436A13F0020FF7
:1013000006D00268536823F48033C16A0B435360EC
:10131000436A13F0040F06D00268536823F4802355
:10132000016B0B435360436A13F0080F06D0026849
:10133000536823F40043416B0B435360436A13F03B
:10134000100F06D00268936823F48053816B0B431F
:101350009360436A13F0200F06D00268936823F469
:101360000053C16B0B439360436A13F0400F0AD0E4
:101370000268536823F48013016C0B435360036CC1
:10138000B3F5801F0BD0436A13F0800F06D00268BC
:10139000536823F40023816C0B4353607047026849
:1013A000536823F4C003416C0B435360EBE72DE912
:1013B000F84305460F4616469946DDF820802C680E
:1013C000E46937EA04030CBF4FF0010C4FF0000C46
:1013D000B4453DD1B8F1FF3FF1D001F01DF9A0EBCC
:1013E0000900404522D8B8F1000F1FD02B681A68B9
:1013F00012F0040FE3D0DA6912F4006FDFD04FF47B
:1014000000621A622A68136823F4D07313602A6892
:10141000936823F0010393602023AB67EB67C5F863
:101420008030002385F87430032012E02A681368A6
:1014300023F4D07313602A68936823F00103936048
:101440002023AB67EB67002385F87430032000E0AE
:101450000020BDE8F88330B583B004460023C0F80F
:10146000803001F0D9F805462268126812F0080FA2
:101470000DD123681B6813F0040F16D12023A36736
:10148000E3670020206684F8740003B030BD6FF07D
:101490007E430093034600224FF400112046FFF7DD
:1014A00086FF0028E5D00320EFE76FF07E4300932E
:1014B0002B4600224FF480012046FFF778FF0028DA
:1014C000DCD00320E1E768B310B50446836F03B3B3
:1014D0002423A3672268136823F0010313602046C6
:1014E000FFF768FD012813D0636ABBB9226853680F
:1014F00023F4904353602268936823F02A03936097
:101500002268136843F0010313602046FFF7A3FF2E
:1015100010BD80F87430FFF789F9D9E72046FFF74E
:10152000E1FEE3E70120704703464165A0F858203B
:10153000A0F85A20002242668268B2F5805F06D089
:10154000A2B9026972B9FF22A0F85C2014E0026916
:1015500022B940F2FF12A0F85C200DE0FF22A0F8B3
:101560005C2009E07F22A0F85C2005E0B2F1805FFA
:101570001BD00022A0F85C200022C3F88020222289
:10158000DA6719688A6842F001028A609A68B2F5DF
:10159000805F14D00D4A5A66002083F874001A68E0
:1015A000136843F490731360704702691AB97F227D
:1015B000A0F85C20E0E73F22A0F85C20DCE71A6995
:1015C000002AE7D1024A5A66E6E700BF270C000866
:1015D000AB0C0008C36F202B19D1002A18BF0029BB
:1015E00017D090F87430012B15D010B5012380F876
:1015F00074300023036603685C6814F4000F03D0A2
:101600001C6844F080641C60FFF78EFF10BD022050
:10161000704701207047022070470000002800F04A
:10162000068270B582B00446036813F0010F29D01A
:10163000954B9B6803F00C03042B1AD0924B9B68CC
:1016400003F00C03082B0FD06368B3F5803F40D044
:10165000002B54D18C4B1A6822F480321A601A681D
:1016600022F480221A6039E0874B5B6813F4800F04
:10167000EAD0854B1B6813F4003F03D06368002B4E
:1016800000F0D781236813F0020F74D07E4B9B6863
:1016900013F00C0F5ED07C4B9B6803F00C03082BFF
:1016A00053D0E368002B00F08980774A136843F039
:1016B0000103136000F0B0FF0546734B1B6813F085
:1016C000020F72D100F0A8FF401B0228F5D90320B9
:1016D000B4E16D4A136843F48033136063682BB33D
:1016E00000F09AFF0546684B1B6813F4003FC9D110
:1016F00000F092FF401B6428F5D903209EE1B3F56A
:10170000A02F09D0604B1A6822F480321A601A6840
:1017100022F480221A60E1E75B4B1A6842F48022CF
:101720001A601A6842F480321A60D7E700F074FF3A
:101730000546554B1B6813F4003FA3D000F06CFF27
:10174000401B6428F5D9032078E14F4B5B6813F404
:10175000800FA6D14C4B1B6813F0020F03D0E36837
:10176000012B40F06881484A136823F0F80321698F
:1017700043EAC1031360236813F0080F46D063697E
:1017800083B3414A536F43F00103536700F044FFB2
:1017900005463D4B5B6F13F0020F37D100F03CFF65
:1017A000401B0228F5D9032048E1374A136823F08B
:1017B000F803216943EAC1031360DCE7324A136886
:1017C00023F00103136000F027FF05462E4B1B6832
:1017D00013F0020FCFD000F01FFF401B0228F5D9F5
:1017E00003202BE1284A536F23F00103536700F0D5
:1017F00013FF0546244B5B6F13F0020F06D000F079
:101800000BFF401B0228F5D9032017E1236813F0D2
:10181000040F7DD01C4B1B6C13F0805F1ED11A4B44
:101820001A6C42F080521A641B6C03F080530193CF
:10183000019B0125154B1B6813F4807F10D0A36812
:10184000012B25D0002B3BD10F4B1A6F22F0010248
:101850001A671A6F22F004021A671EE00025E9E7F2
:101860000A4A136843F48073136000F0D5FE0646FD
:10187000064B1B6813F4807FE1D100F0CDFE801B86
:101880006428F5D90320D9E00038024000700040F8
:10189000724A136F43F001031367A36833B300F078
:1018A000BBFE06466D4B1B6F13F0020F2FD100F0ED
:1018B000B3FE801B41F288339842F3D90320BDE088
:1018C000052B09D0654B1A6F22F001021A671A6FB7
:1018D00022F004021A67E0E7604B1A6F42F004023C
:1018E0001A671A6F42F001021A67D6E700F094FEF9
:1018F00006465A4B1B6F13F0020F08D000F08CFE07
:10190000801B41F288339842F3D9032096E0FDB959
:10191000A369002B00F09180504A926802F00C02FB
:10192000082A59D0022B19D04C4A136823F080732F
:10193000136000F071FE0446484B1B6813F0007FF3
:1019400048D000F069FE001B0228F5D9032075E09D
:10195000424A136C23F080531364D9E73F4A13685B
:1019600023F08073136000F057FE05463B4B1B6865
:1019700013F0007F06D000F04FFE401B0228F5D97F
:1019800003205BE0E369226A1343626A43EA82133D
:10199000A26A5208013A43EA0243E26A43EA026356
:1019A000226B43EA02732D4A5360136843F080733D
:1019B000136000F031FE0446284B1B6813F0007FD3
:1019C00006D100F029FE001B0228F5D9032035E0DE
:1019D000002033E0002031E0204A5268012B2FD054
:1019E00002F48003E1698B422CD102F03F03216AAB
:1019F0008B4229D1616A47F6C0731340B3EB811F54
:101A000024D102F44031A36A5B08013BB1EB034FE0
:101A10001ED102F07063E16AB3EB016F1AD102F0DC
:101A2000E042236BB2EB037F16D1002006E00120D9
:101A30007047012002E0012000E0002002B070BDEC
:101A40000120FBE70120F9E70120F7E70120F5E796
:101A50000120F3E70120F1E70120EFE70038024021
:101A600008B52F4B9B6803F00C03082B01D02D48C1
:101A700008BD2B4B5A6802F03F025B6813F4800FDD
:101A80002AD0274B5968C1F3881C4FEA4C11B1EB9F
:101A90000C006EEB0E0E4FEA8E1343EA9063810149
:101AA000091A63EB0E03DB0043EA5173C90011EB23
:101AB0000C0C43F10003990200234FEA8C2041EA09
:101AC0009C51FEF70DFC164B5B68C3F301430133D9
:101AD0005B00B0FBF3F0CBE7114B5968C1F3881CF6
:101AE0004FEA4C11B1EB0C006EEB0E0E4FEA8E1369
:101AF00043EA90638101091A63EB0E03DB0043EABA
:101B00005173C90011EB0C0C43F10003990200233F
:101B10004FEA8C2041EA9C51FEF7E2FBD3E700BF7D
:101B2000003802400024F400002800F0A08070B5C6
:101B30000D460446524B1B6803F00F038B420BD239
:101B40004F4A136823F00F030B431360136803F02D
:101B50000F038B4240F08D80236813F0020F17D0E3
:101B600013F0040F04D0474A936843F4E0539360A2
:101B7000236813F0080F04D0424A936843F460438B
:101B80009360404A936823F0F003A1680B4393608D
:101B9000236813F0010F31D06368012B20D0022B92
:101BA00025D0384A126812F0020F64D035498A688D
:101BB00022F0030213438B6000F02EFD0646314BEA
:101BC0009B6803F00C036268B3EB820F16D000F041
:101BD00023FD801B41F288339842F0D9032045E071
:101BE000284A126812F4003FE0D101203EE0254A65
:101BF000126812F0007FD9D1012037E0204B1B681A
:101C000003F00F03AB420AD91D4A136823F00F03F8
:101C10002B431360136803F00F03AB422DD12368ED
:101C200013F0040F06D0174A936823F4E053E168D9
:101C30000B439360236813F0080F07D0114A936891
:101C400023F46043216943EAC1039360FFF708FF6F
:101C50000C4B9B68C3F303130B4AD35CD8400B4B6C
:101C600018600B4B186800F099FC002070BD012033
:101C700070470120FAE70120F8E70120F6E700BFEE
:101C8000003C024000380240C03700080800002035
:101C900004000020014B1868704700BF08000020B6
:101CA00008B5FFF7F7FF044B9B68C3F38223034A91
:101CB000D35CD84008BD00BF00380240D0370008D0
:101CC00008B5FFF7E7FF044B9B68C3F34233034AB1
:101CD000D35CD84008BD00BF00380240D0370008B0
:101CE000F0B583B00446066816F001060DD0B54B7A
:101CF0009A6822F400029A609A68416B0A439A60DB
:101D0000436B002B00F067810026256815F4002541
:101D100011D0AC4AD2F88C3023F44013E16B0B4362
:101D2000C2F88C30E36BB3F5801F00F05681002BB6
:101D300000F055810025236813F4801F0FD0A14ABD
:101D4000D2F88C3023F44003216C0B43C2F88C3062
:101D5000236CB3F5800F00F0448103B9012523689B
:101D600013F0807F00D0012613F0200F40F03B815C
:101D7000236813F0100F0CD0924BD3F88C2022F074
:101D80008072C3F88C20D3F88C20A16B0A43C3F86F
:101D90008C20236813F4804F08D08A4AD2F8903000
:101DA00023F44033616E0B43C2F89030236813F480
:101DB000004F08D0834AD2F8903023F44023A16E1C
:101DC0000B43C2F89030236813F4803F08D07D4A5B
:101DD000D2F8903023F44013E16E0B43C2F89030F8
:101DE000236813F4003F08D0764AD2F8903023F4E9
:101DF0004003216F0B43C2F89030236813F0400F6B
:101E000008D0704AD2F8903023F00303616C0B4382
:101E1000C2F89030236813F0800F08D0694AD2F8D6
:101E2000903023F00C03A16C0B43C2F89030236870
:101E300013F4807F08D0634AD2F8903023F0300347
:101E4000E16C0B43C2F89030236813F4007F08D094
:101E50005C4AD2F8903023F0C003216D0B43C2F8E6
:101E60009030236813F4806F08D0564AD2F890302F
:101E700023F44073616D0B43C2F89030236813F470
:101E8000006F08D04F4AD2F8903023F44063A16D20
:101E90000B43C2F89030236813F4805F08D0494A9E
:101EA000D2F8903023F44053E16D0B43C2F89030E8
:101EB000236813F4005F08D0424AD2F8903023F42C
:101EC0004043216E0B43C2F89030236813F4800F17
:101ED00008D03C4AD2F8903023F08063A16F0B43C6
:101EE000C2F89030236813F4001F0DD0354AD2F8A1
:101EF000903023F00063E16F0B43C2F89030E36F42
:101F0000B3F1006F00F0D580236813F0080F00D004
:101F1000012513F4802F08D02A4AD2F8903023F0FC
:101F20004073616F0B43C2F89030236813F4000FC5
:101F300009D0244AD2F8903023F08053D4F880108E
:101F40000B43C2F89030236813F0806F09D01D4A0C
:101F5000D2F8903023F00053D4F884100B43C2F829
:101F60009030236813F0006F09D0164AD2F88C30F5
:101F700023F00073D4F888100B43C2F88C30236828
:101F800013F0805F09D00F4AD2F88C3023F08063C1
:101F9000D4F88C100B43C2F88C3026B9236813F0A8
:101FA000007F00F00681074A136823F08063136006
:101FB00000F032FB0646034B1B6813F0006F7AD02B
:101FC00002E000BF0038024000F026FB801B6428BE
:101FD000F1D90320F0E0012697E60126A7E60125C6
:101FE000A9E60126B9E67F4B1A6C42F080521A64CA
:101FF0001B6C03F080530193019B7B4A136843F4ED
:102000008073136000F008FB0746774B1B6813F4DE
:10201000807F06D100F000FBC01B6428F5D90320A7
:10202000CAE0704B1B6F13F4407315D0226B02F49F
:1020300040729A4210D06B4B1A6F22F44072196FA3
:1020400041F480311967196F21F4803119671A67DB
:102050001B6F13F0010F12D1236B03F44072B2F522
:10206000407F1DD05F4A936823F4F81393605D4965
:102070000B6F226BC2F30B0213430B6778E600F081
:10208000CBFA0746574B1B6F13F0020FE4D100F059
:10209000C3FAC01B41F288339842F3D903208BE086
:1020A0005048826822F4F812504919400A4382606D
:1020B000DDE7012528E7236813F0010F13D0636BD8
:1020C0008BB9484AD2F88430D2F88410606803F49F
:1020D000403343EA801301F070610B43A16843EA87
:1020E0000173C2F88430236813F4002F03D0E26B2D
:1020F000B2F5801F06D013F4801F1ED0236CB3F5F9
:10210000800F1AD1374AD2F88430D2F88410606830
:1021100003F4403343EA8013E06843EA006301F0CC
:10212000E0410B43C2F88430D2F88C3023F01F0317
:10213000616A01390B43C2F88C30236813F0807F49
:1021400011D0284AD2F88400D2F884106668236936
:102150001B0443EA861300F07060034301F0E04182
:102160000B43C2F88430236813F0007F0DD06268FF
:1021700023691B0443EA8213E26843EA0263A2680C
:1021800043EA0273174AC2F88430164A136843F0D0
:102190008063136000F040FA0646124B1B6813F090
:1021A000006F06D100F038FA801B6428F5D90320AF
:1021B00002E0012D02D0002003B0F0BD094A1368EF
:1021C00023F08053136000F027FA0546054B1B6887
:1021D00013F0005F0CD000F01FFA401B6428F5D903
:1021E0000320E9E70038024000700040FFFCFF0FC9
:1021F000236813F4002F01D0E26B22B113F4801F87
:102200001DD0236CDBB9354AD2F88830D2F888105B
:10221000606903F4403343EA8013A06943EA006332
:1022200001F0E0410B43C2F88830D2F88C3023F43F
:10223000F853A16A013943EA0123C2F88C302368BC
:1022400013F4001F03D0E36FB3F1006F31D02368A4
:1022500013F0080F19D0214AD2F88810D2F888302C
:10226000606903F4403343EA801301F070610B436B
:10227000E16943EA0173C2F88830D2F88C3023F464
:102280004033E16A0B43C2F88C30144A136843F0C0
:102290008053136000F0C0F90446104B1B6813F024
:1022A000005F19D100F0B8F9001B6428F5D90320AC
:1022B00082E70A4AD2F88800D2F888106569236A52
:1022C0001B0443EA851300F07060034301F0E04112
:1022D0000B43C2F88830BAE700206DE700380240AF
:1022E00000230F2B00F2E480F0B583B03AE009221E
:1022F00000E00022AA40324302346E4D45F824200B
:102300006D4A14686FEA0C0224EA0C054E6816F454
:10231000803F01D04CEA0405674C2560646802EAFE
:1023200004054E6816F4003F01D04CEA0405624CE7
:102330006560A46802EA04054E6816F4801F01D0A7
:102340004CEA04055C4CA560E46822404D6815F435
:10235000001F01D04CEA0402574CE26001330F2BFE
:1023600000F2A48001229A400C6804EA020C32EACE
:102370000404F3D14C68651E112C18BF012D01D93E
:10238000122C12D185685E000324B44025EA0405AE
:10239000CC68B4402C438460456825EA02054C684B
:1023A000C4F300129A402A434260C5684FEA430EC4
:1023B000032404FA0EF4E24325EA04058C6804FAC7
:1023C0000EF42C43C4604C68122C18BF022C0FD1A1
:1023D000DD08083550F8257003F00704A6000F2427
:1023E000B44027EA04070C69B4403C4340F8254058
:1023F000046814404A6802F0030202FA0EF2224313
:1024000002604A6812F0805FA8D02C4A546C44F4F1
:1024100080445464526C02F480420192019A9C08F8
:10242000A51C244A52F8256003F0030295000F22F0
:10243000AA4026EA0206224A90423FF45AAF02F529
:102440008062904222D002F58062904220D002F554
:10245000806290421ED002F5806290421CD002F54C
:10246000806290421AD002F58062904218D002F544
:102470008062904216D002F58062904214D002F53C
:10248000806290423FF433AF0A2233E7012231E702
:1024900002222FE703222DE704222BE7052229E75A
:1024A000062227E7072225E7082223E703B0F0BD2D
:1024B000704700BF00380140003C01400038024036
:1024C000000002400AB181617047090481617047D0
:1024D000436901EA030221EA030141EA0241816101
:1024E000704770B50446866D00F096F894F8353064
:1024F000DBB2022B06D080236365002384F83430DE
:10250000012070BD05462268136823F0160313608E
:102510002268536923F080035361236CE3B122687E
:10252000136823F0080313602268136823F0010383
:10253000136023681B6813F0010F11D000F06CF8D2
:10254000431B052BF5D920236365002384F8343021
:10255000032084F83500D4E7A36C002BDFD1E3E738
:10256000E26D3F239340B360002084F834000123E0
:1025700084F83530C5E790F83530DBB2022B03D054
:102580008023436501207047052380F835300268B9
:10259000136823F0010313600020704710B5044650
:1025A0000E4B18784FF47A73B3FBF0F30C4A1068B3
:1025B000B0FBF3F0FEF770FA68B90F2C01D90120D7
:1025C0000AE0002221464FF0FF30FEF721FA054BCA
:1025D0001C60002000E0012010BD00BF00000020B2
:1025E000080000200400002008B50320FEF7FEF9D3
:1025F0000020FFF7D3FFFEF7E1F9002008BD00003F
:10260000034A1168034B1B780B441360704700BFEB
:10261000A002002000000020014B1868704700BF96
:10262000A002002038B50446FFF7F6FF0546B4F1D6
:10263000FF3F02D0044B1B781C44FFF7EDFF401B0B
:10264000A042FAD338BD00BF00000020054BD3F8EC
:10265000882042F47002C3F888204FF000629A602C
:10266000704700BF00ED00E0DFF834D00D480E49A0
:102670000E4A002302E0D458C4500433C4188C42DC
:10268000F9D30B4A0B4C002301E013600432A24241
:10269000FBD3FFF7DBFF00F011F8FDF7FBFF7047FE
:1026A0000000082000000020700000208038000892
:1026B00070000020B8020020FEE7000070B50D4D4C
:1026C0000D4C641BA4100026A64209D10B4D0C4CE6
:1026D00001F028F8641BA4100026A64205D170BDA5
:1026E00055F8043B98470136EEE755F8043B984708
:1026F0000136F2E7783800087838000878380008A2
:102700007C38000802440346934200D1704703F826
:10271000011BF9E70FB40A4B13B51C6824B1A36978
:1027200013B9204600F05EFA05AB049AA168019344
:10273000204600F02DFC02B0BDE8104004B0704708
:102740000C00002070B50E46054618B183690BB920
:1027500000F048FAAB69AC6813B9284600F042FAB9
:102760002C4B9C4220D16C68636EDB0705D4A38997
:10277000980502D4A06D00F0D3FAA38919071DD5DE
:102780002369DBB1013EA36816F8011F013BA3607A
:1027900039BB002B38DA22460A21284600F048F8D7
:1027A000013011D00A2511E01B4B9C4201D1AC68CD
:1027B000DAE71A4B9C4208BFEC68D5E72146284669
:1027C00000F088F80028DDD04FF0FF35636EDA079F
:1027D00005D4A3899B0502D4A06D00F0A2FA284677
:1027E00070BD002B04DAA2699A4206DC0A2904D0E3
:1027F00023685A1C22601970C5E72246284600F05B
:1028000017F80130BFD1DFE723680A255A1C226080
:102810001D70DBE7FC3700081C380008DC370008B7
:10282000024B01461868FFF78DBF00BF0C00002067
:10283000F8B50E461446054618B183690BB900F089
:10284000D1F9214B9C422BD16C68A369A360A38969
:102850001A072FD523696BB323692068C01A6369EF
:10286000F6B28342374604DC2146284600F026F9BA
:1028700030BBA368013BA36023685A1C22601E7012
:1028800063690130834204D0A389DB0706D50A2E91
:1028900004D12146284600F011F988B93846F8BD20
:1028A0000A4B9C4201D1AC68CFE7094B9C4208BF60
:1028B000EC68CAE72146284600F00CF80028CBD087
:1028C0004FF0FF37EAE700BFFC3700081C3800086C
:1028D000DC370008324B70B51D6806460C4625B142
:1028E000AB6913B9284600F07DF92E4B9C420FD1FD
:1028F0006C68A389B4F90C2019072CD4DD0611D417
:102900000923336042F04003A3814FF0FF303EE0E3
:10291000254B9C4201D1AC68EBE7244B9C4208BF9D
:10292000EC68E6E7580712D5616B41B104F1440346
:10293000994202D0304600F05BFA00236363A3891A
:1029400023F02403A3810023636023692360A38908
:1029500043F00803A38123694BB9A38903F42073CF
:10296000B3F5007F03D02146304600F001FAA0897C
:10297000B4F90C2010F001030AD00023A3606369AE
:102980005B42A361236943B910F08000BAD170BDE6
:10299000810758BF6369A360F4E70020F7E700BF31
:1029A0000C000020FC3700081C380008DC37000849
:1029B0008A892DE9F041054610070C4658D44B682A
:1029C000002B05DC0B6C002B02DC0020BDE8F08145
:1029D000E66A002EF9D0002312F480522F682B6093
:1029E00032D0606DA3895A0705D56368C01A636B3E
:1029F0000BB1236CC01A00230246E66A216A2846FE
:102A0000B047431CA38906D129681D292CD82A4A1E
:102A1000CA40D60728D500226260D9042269226004
:102A200004D5421C01D12B6803B96065616B2F602E
:102A30000029CAD004F14403994202D0284600F08C
:102A4000D7F900206063C1E7216A01232846B04717
:102A5000411CC7D12B68002BC4D01D2B01D0162BD5
:102A600001D12F60B1E7A38943F04003A381ADE713
:102A70000F69002FA9D093070E6808BF4B690F603C
:102A800018BF0023A6EB07088B60B8F1000F9CDD90
:102A9000216AA66A43463A462846B047002806DC23
:102AA000A38943F04003A3814FF0FF308EE7074432
:102AB000A8EB0008E9E700BF0100402038B50B692A
:102AC00005460C4613B90025284638BD18B1836960
:102AD0000BB900F087F8144B9C421BD16C68B4F919
:102AE0000C30002BEFD0626ED00704D4990502D4CD
:102AF000A06D00F015F928462146FFF759FF636ED7
:102B0000DA070546E0D4A3899B05DDD4A06D00F06B
:102B100008F9D9E7054B9C4201D1AC68DFE7044BCB
:102B20009C4208BFEC68DAE7FC3700081C38000854
:102B3000DC370008002310B50446C0E90033C0E9C3
:102B40000433836081814366C28183611946082210
:102B50005C30FFF7D7FD054B6362054BA362054B65
:102B6000E362054B2462236310BD00BF39350008C2
:102B70005B35000893350008B7350008014900F0BF
:102B8000AFB800BFBD2A000870B568224D1E55437E
:102B90000E4605F1740100F077F9044640B10021BA
:102BA000C0E900160C30A06005F16802FFF7AAFD2D
:102BB000204670BD014800F0B3B800BFA502002058
:102BC000014800F0AEB800BFA5020020014800F0A7
:102BD000A7B800BFA6020020014800F0A2B800BFBD
:102BE000A602002010B50446FFF7F0FFA3691BB151
:102BF000BDE81040FFF7F0BFC4E912332365134B63
:102C0000134A1B68A262A34204BF0123A3612046AA
:102C100000F020F86060204600F01CF8A06020461C
:102C200000F018F80022E06004216068FFF782FFDE
:102C3000A06801220921FFF77DFFE068022212212E
:102C4000FFF778FF0123A361D2E700BFD837000860
:102C50007D2B0008F8B50746FFF7ACFF1E4B1E683A
:102C6000B36913B93046FFF7BDFF4836D6E90134E2
:102C7000013B03D533680BB33668F7E7B4F90C5062
:102C8000D5B9164BE36004F15800656600F047F8CB
:102C9000FFF796FFC4E90155C4E904552560A56115
:102CA0000822294604F15C00FFF72CFDC4E90D550C
:102CB000C4E912552046F8BD6834D9E704213846E6
:102CC000FFF762FF044630600028D5D1FFF778FF98
:102CD0000C233B60EEE700BFD83700080100FFFF80
:102CE0002DE9F8430646884600F148040027D4E958
:102CF0000195B9F1010905D52468002CF7D13846B2
:102D0000BDE8F883AB89012B07D9B5F90E30013343
:102D100003D029463046C04707436835E9E7704786
:102D20007047704770B50E46B1F90E10002996B085
:102D300014461D4608DAB6F90C3000222A601A063D
:102D400010D44FF480630EE06A4600F05BFC00286C
:102D5000F1DB019A02F47042A2F500535A425A4143
:102D60002A60EEE740230020236016B070BD00000B
:102D70008B8973B59D0706460C4607D504F14703BA
:102D8000236023610123636102B070BD01AB6A4619
:102D9000FFF7C8FF00990546304600F075F848B9BE
:102DA000B4F90C309A05EFD423F0030343F0020387
:102DB000A381E3E70D4BB362A389206043F0800356
:102DC000A381009B6361019B20615BB1B4F90E108C
:102DD000304600F029FC28B1A38923F0030343F017
:102DE0000103A381A0890543A581CDE77D2B0008C0
:102DF00037B5002944D051F8043C0190002BA1F1D3
:102E00000404B8BFE41800F031FC1E4A01981368AE
:102E100033B96360146003B0BDE8304000F02CBCEF
:102E2000A34208D9256861198B4201BF19685B6804
:102E300049192160EDE71A465B680BB1A342FAD944
:102E400011685518A5420BD1246821445418A34297
:102E50001160E0D11C685B68536021441160DAE7BF
:102E600002D90C230360D6E7256861198B4204BFA1
:102E700019685B68636004BF491921605460CAE740
:102E800003B030BDA8020020F8B5CD1C25F0030525
:102E900008350C2D38BF0C25002D064601DBA94254
:102EA00003D90C2333600020F8BD00F0DFFB21497B
:102EB0000A6814469CB9204F3B6823B92146304626
:102EC00000F02AFB38602946304600F025FB431C01
:102ED00023D10C233360304600F0CEFBE3E72368B8
:102EE0005B1B17D40B2B03D923601C44256004E023
:102EF0006368A2420CBF0B605360304600F0BCFB1D
:102F000004F10B00231D20F00700C21ACCD01B1ABD
:102F1000A350C9E722466468CCE7C41C24F003042C
:102F2000A042E3D0211A304600F0F6FA0130DDD19C
:102F3000CFE700BFA8020020AC0200209368013B4D
:102F4000002B10B4936008DA9469A34201DB0A29CC
:102F500003D15DF8044BFFF76BBC1368581C10607D
:102F6000197008465DF8044B7047F8B506460F46E1
:102F70001446D518AC4201D1002007E014F8011B1B
:102F80003A463046FFF7DAFF431CF3D1F8BD0000A4
:102F90002DE9F04F0D469DB014469846064618B1EF
:102FA00083690BB9FFF71EFE894B9D421BD17568E3
:102FB0006B6ED90705D4AB899A0502D4A86DFFF7CB
:102FC000AFFEAB891B0701D52B69EBB9294630460B
:102FD000FFF780FCC0B16B6EDC070ED54FF0FF3001
:102FE0001DB0BDE8F08F7B4B9D4201D1B568DFE796
:102FF000794B9D4208BFF568DAE7AB899805EDD4B7
:10300000A86DFFF78EFEE9E70023099320238DF8D2
:103010002930CDF80C803023DFF8C0818DF82A30BC
:103020004FF0010923469A4613F8012B0AB1252ACD
:10303000F9D1BAEB040B0BD05B4622462946304649
:10304000FFF793FF013000F0AA80099A5A440992D1
:103050009AF80030002B00F0A28000234FF0FF32DE
:10306000CDE905230AF1010A049307938DF8533043
:103070001A935446052214F8011B5848FDF7E0F84E
:10308000049AD8B9D10644BF20238DF853301307D2
:1030900044BF2B238DF853309AF800302A2B15D0DB
:1030A000079A544600204FF00A0C214611F8013BC4
:1030B000303B092B4ED9B0B1079214E0A0EB0803C6
:1030C00009FA03F313430493A246D2E7039B191DA5
:1030D0001B680391002BBBBF5B4242F002020793C7
:1030E0000793B8BF049223782E2B0CD163782A2B38
:1030F00035D1039B1A1D1B680392002BB8BF4FF0FC
:10310000FF3302340593DFF8E4A021780322504610
:10311000FDF796F840B14023A0EB0A0003FA00F057
:10312000049B03430134049314F8011B2C488DF8CD
:1031300028100622FDF784F800283FD0294B1BBB3E
:10314000039B073323F0070308330393099B3B4496
:10315000099367E70CFB02320C460120A5E7002328
:103160000134059319464FF00A0C204610F8012B44
:10317000303A092A03D9002BC5D00591C3E70CFBCF
:10318000012104460123F0E703AB00932A46164BC6
:1031900004A93046AFF300800746781CD6D16B6E89
:1031A000D90705D4AB899A0502D4A86DFFF7B9FDFC
:1031B000AB895B063FF512AF099811E703AB0093AB
:1031C0002A46094B04A9304600F080F8E4E700BF26
:1031D000FC3700081C380008DC3700083C380008C1
:1031E00046380008000000006B2F00084238000835
:1031F0002DE9F047164699468A680B69DDF820806C
:103200009342B8BF1346336091F8432007460C46FB
:103210000AB1013333602368990642BF3368023331
:103220003360256815F0060506D104F1190AE36834
:1032300032689B1AAB4226DC94F84320131E2268A6
:1032400018BF012392062BD404F1430249463846A5
:10325000C04701301ED02368E568326803F00603DA
:10326000042B08BFAD1AA36822690CBF25EAE575D7
:1032700000259342C4BF9B1AED1800261A34B542AC
:103280001AD1002008E00123524649463846C0477B
:10329000013003D14FF0FF30BDE8F0870135C6E7BC
:1032A000E1185A1C302081F84300224494F845105C
:1032B00082F843100233C7E70123224649463846C5
:1032C000C0470130E6D00136D9E700002DE9FF47BD
:1032D0000F7E0C9D782F914680460C469A4601F150
:1032E000430207D8622F0AD8002F00F0D880582F49
:1032F00000F0A38004F1420584F842703AE0A7F19F
:103300006303152BF6D801A151F823F065330008AB
:1033100079330008F5320008F5320008F53200086C
:10332000F532000879330008F5320008F53200085C
:10333000F5320008F532000885340008A93300088A
:1033400067340008F5320008F5320008A734000899
:10335000F5320008A9330008F5320008F5320008FC
:103360006F3400082B681A1D1B682A6004F142059F
:1033700084F842300123A3E020682968060601F1A1
:1033800004030AD50E682B60002E03DA2D23764243
:1033900084F843305E480A2319E00E682B6010F071
:1033A000400F18BF36B2EFE72B682068191D29605F
:1033B000010601D51E6802E04606FBD51E8854486A
:1033C0006F2F0CBF08230A23002184F8431065687F
:1033D000A560002DA2BF216821F0040121600EB973
:1033E000002D4DD01546B6FBF3F103FB1167C75D09
:1033F00005F8017D3746BB420E46F4D9082B0BD1A8
:103400002368DE0708D5236961689942DEBF30234F
:1034100005F8013C05F1FF35521B2261CDF800A0F3
:103420004B4603AA21464046FFF7E2FE01304CD14D
:103430004FF0FF3004B0BDE8F087354881F84570A3
:103440002968236851F8046B29601D0614D5DF072D
:1034500044BF43F0200323601EB9236823F02003F8
:1034600023601023B0E7236843F020032360782310
:10347000284884F84530E3E7590648BFB6B2E6E786
:103480001546BBE72B6826686169181D286035065C
:103490001B6801D5196002E07006FBD51980002376
:1034A00023611546BAE72B681A1D2A601D686268F9
:1034B00000212846FCF7C4FE08B1401B6060636829
:1034C0002361002384F84330A8E723692A4649464C
:1034D0004046D0470130ABD023689B0713D4E06847
:1034E000039B9842B8BF1846A4E7012332464946D9
:1034F0004046D04701309BD00135E36803995B1A01
:10350000AB42F2DCEBE7002504F11906F5E700BF5A
:103510004D3800085E38000838B5064D00230446D3
:1035200008462B6000F0E8F8431C02D12B6803B179
:10353000236038BDB002002010B50C46B1F90E1062
:1035400000F0A0F80028ABBF636DA3891B1823F41B
:103550008053ACBF6365A38110BD2DE9F0411F46C8
:103560008B89DB0505460C46164605D5B1F90E10CC
:103570000223002200F068F8A389B4F90E1023F4A6
:103580008053A38132463B462846BDE8F04100F017
:1035900017B810B50C46B1F90E1000F055F8431CE1
:1035A000A38915BF606523F4805343F48053A3813E
:1035B00018BFA38110BDB1F90E1000F013B80000C0
:1035C00038B5074D04460846114600222A601A46BF
:1035D00000F0A0F8431C02D12B6803B1236038BD72
:1035E000B002002038B5064D0023044608462B6083
:1035F00000F05AF8431C02D12B6803B1236038BD98
:10360000B002002038B5074D002304460846114695
:103610002B6000F051F8431C02D12B6803B12360EA
:1036200038BD00BFB002002038B5064D0023044667
:1036300008462B6000F048F8431C02D12B6803B108
:10364000236038BDB002002038B5074D0446084657
:10365000114600222A601A4600F03EF8431C02D1AF
:103660002B6803B1236038BDB00200200148FFF78A
:1036700057BB00BFA40200200148FFF752BB00BFA8
:10368000A402002038B5074D044608461146002222
:103690002A601A4600F028F8431C02D12B6803B1B7
:1036A000236038BDB0020020024B58221A604FF050
:1036B000FF307047B0020020024B58221A604FF0D2
:1036C000FF307047B0020020024B58221A600020E1
:1036D000704700BFB0020020024B58221A604FF022
:1036E000FF307047B0020020024B58221A604FF0A2
:1036F000FF307047B0020020044A05491368002BD0
:1037000008BF0B461844106018467047B4020020EA
:10371000B8020020024B58221A604FF0FF30704769
:10372000B0020020F8B500BFF8BC08BC9E46704748
:0C373000F8B500BFF8BC08BC9E4670470E
:10373C0068656C6C6F2073746D3332200D00000063
:10374C00747970652061206D6573736167652061A4
:10375C006E6420707265737320656E7465720D00F3
:10376C00746865206D657373616765207761733A62
:10377C00202025735C200A007479706520616E6FBF
:10378C0074686572206D65737361676520616E6422
:10379C0020707265737320656E7465720D00000085
:1037AC00526573756C7461646F3A2035453A202507
:1037BC00642000000000000000000000010203046F
:1037CC000607080900000000010203041000002095
:1037DC0000000000000000000000000000000000DD
:1037EC0000000000000000000000000000000000CD
:1037FC0000000000000000000000000000000000BD
:10380C0000000000000000000000000000000000AC
:10381C00000000000000000000000000000000009C
:10382C00000000000000000000000000000000008C
:10383C00232D302B2000686C4C006566674546478D
:10384C000030313233343536373839414243444510
:10385C00460030313233343536373839616263647F
:04386C00656600008D
:08387000A0CAFF7F0100000067
:04387800250200081D
:04387C00010200083D
:1038800001000000100000000024F40010000020DF
:1038900000000000FC3700081C380008DC37000876
:1038A0000000000000000000000000000000000018
:1038B0000000000000000000000000000000000008
:1038C00000000000000000000000000000000000F8
:1038D00000000000000000000000000000000000E8
:1038E00000000000000000000000000000000000D8
:040000050800266960
:00000001FF
